{
  "contractName": "Ledger",
  "abi": [
    {
      "inputs": [
        {
          "internalType": "address",
          "name": "_ticketFactoryAddress",
          "type": "address"
        }
      ],
      "stateMutability": "nonpayable",
      "type": "constructor"
    },
    {
      "inputs": [
        {
          "internalType": "address",
          "name": "owner",
          "type": "address"
        }
      ],
      "name": "OwnableInvalidOwner",
      "type": "error"
    },
    {
      "inputs": [
        {
          "internalType": "address",
          "name": "account",
          "type": "address"
        }
      ],
      "name": "OwnableUnauthorizedAccount",
      "type": "error"
    },
    {
      "anonymous": false,
      "inputs": [
        {
          "indexed": false,
          "internalType": "address",
          "name": "founder",
          "type": "address"
        },
        {
          "indexed": false,
          "internalType": "string",
          "name": "message",
          "type": "string"
        }
      ],
      "name": "LedgerPublished",
      "type": "event"
    },
    {
      "anonymous": false,
      "inputs": [
        {
          "indexed": false,
          "internalType": "address payable",
          "name": "owner",
          "type": "address"
        },
        {
          "components": [
            {
              "internalType": "address payable",
              "name": "createdBy",
              "type": "address"
            },
            {
              "internalType": "address",
              "name": "collateralId",
              "type": "address"
            },
            {
              "internalType": "uint256",
              "name": "id",
              "type": "uint256"
            },
            {
              "internalType": "uint256",
              "name": "loanAmount",
              "type": "uint256"
            }
          ],
          "indexed": false,
          "internalType": "struct Ticket",
          "name": "ticket",
          "type": "tuple"
        }
      ],
      "name": "NewTicketStored",
      "type": "event"
    },
    {
      "anonymous": false,
      "inputs": [
        {
          "indexed": true,
          "internalType": "address",
          "name": "previousOwner",
          "type": "address"
        },
        {
          "indexed": true,
          "internalType": "address",
          "name": "newOwner",
          "type": "address"
        }
      ],
      "name": "OwnershipTransferred",
      "type": "event"
    },
    {
      "anonymous": false,
      "inputs": [
        {
          "indexed": false,
          "internalType": "address",
          "name": "ticketFactory",
          "type": "address"
        }
      ],
      "name": "TicketFactoryAddressChanged",
      "type": "event"
    },
    {
      "inputs": [],
      "name": "owner",
      "outputs": [
        {
          "internalType": "address",
          "name": "",
          "type": "address"
        }
      ],
      "stateMutability": "view",
      "type": "function"
    },
    {
      "inputs": [],
      "name": "renounceOwnership",
      "outputs": [],
      "stateMutability": "nonpayable",
      "type": "function"
    },
    {
      "inputs": [],
      "name": "ticketFactory",
      "outputs": [
        {
          "internalType": "address",
          "name": "",
          "type": "address"
        }
      ],
      "stateMutability": "view",
      "type": "function"
    },
    {
      "inputs": [
        {
          "internalType": "address",
          "name": "newOwner",
          "type": "address"
        }
      ],
      "name": "transferOwnership",
      "outputs": [],
      "stateMutability": "nonpayable",
      "type": "function"
    },
    {
      "inputs": [
        {
          "internalType": "address",
          "name": "_address",
          "type": "address"
        }
      ],
      "name": "setTicketFactoryAddress",
      "outputs": [],
      "stateMutability": "nonpayable",
      "type": "function"
    },
    {
      "inputs": [
        {
          "internalType": "address payable",
          "name": "_owner",
          "type": "address"
        },
        {
          "components": [
            {
              "internalType": "address payable",
              "name": "createdBy",
              "type": "address"
            },
            {
              "internalType": "address",
              "name": "collateralId",
              "type": "address"
            },
            {
              "internalType": "uint256",
              "name": "id",
              "type": "uint256"
            },
            {
              "internalType": "uint256",
              "name": "loanAmount",
              "type": "uint256"
            }
          ],
          "internalType": "struct Ticket",
          "name": "_ticket",
          "type": "tuple"
        }
      ],
      "name": "appendNewTicket",
      "outputs": [],
      "stateMutability": "nonpayable",
      "type": "function"
    }
  ],
  "bytecode": "0x608060405234801562000010575f80fd5b5060405162000e2f38038062000e2f83398181016040528101906200003691906200039e565b335f73ffffffffffffffffffffffffffffffffffffffff168173ffffffffffffffffffffffffffffffffffffffff1603620000aa575f6040517f1e4fbdf7000000000000000000000000000000000000000000000000000000008152600401620000a19190620003df565b60405180910390fd5b620000bb816200011c60201b60201c565b507fab6c6e15614c626d012c89f4646d7c6e5ee2798e795f55ba5d2bbbb1763378f8620000ed620001dd60201b60201c565b604051620000fc91906200047e565b60405180910390a162000115816200020460201b60201c565b50620004ae565b5f805f9054906101000a900473ffffffffffffffffffffffffffffffffffffffff169050815f806101000a81548173ffffffffffffffffffffffffffffffffffffffff021916908373ffffffffffffffffffffffffffffffffffffffff1602179055508173ffffffffffffffffffffffffffffffffffffffff168173ffffffffffffffffffffffffffffffffffffffff167f8be0079c531659141344cd1fd0a4f28419497f9722a3daafe3b4186f6b6457e060405160405180910390a35050565b5f805f9054906101000a900473ffffffffffffffffffffffffffffffffffffffff16905090565b620002146200029060201b60201c565b7f22f893ecfdd76cbe10d45bf573a6524d3be0f78d88dfc48aca79f9e2708ccaab81604051620002459190620003df565b60405180910390a18060035f6101000a81548173ffffffffffffffffffffffffffffffffffffffff021916908373ffffffffffffffffffffffffffffffffffffffff16021790555050565b620002a06200033260201b60201c565b73ffffffffffffffffffffffffffffffffffffffff16620002c6620001dd60201b60201c565b73ffffffffffffffffffffffffffffffffffffffff16146200033057620002f26200033260201b60201c565b6040517f118cdaa7000000000000000000000000000000000000000000000000000000008152600401620003279190620003df565b60405180910390fd5b565b5f33905090565b5f80fd5b5f73ffffffffffffffffffffffffffffffffffffffff82169050919050565b5f62000368826200033d565b9050919050565b6200037a816200035c565b811462000385575f80fd5b50565b5f8151905062000398816200036f565b92915050565b5f60208284031215620003b657620003b562000339565b5b5f620003c58482850162000388565b91505092915050565b620003d9816200035c565b82525050565b5f602082019050620003f45f830184620003ce565b92915050565b5f82825260208201905092915050565b7f4c656467657220686173206265656e20696e697469616c697a656420627920475f8201527f61627269656c2e00000000000000000000000000000000000000000000000000602082015250565b5f62000466602783620003fa565b915062000473826200040a565b604082019050919050565b5f604082019050620004935f830184620003ce565b8181036020830152620004a68162000458565b905092915050565b61097380620004bc5f395ff3fe608060405234801561000f575f80fd5b5060043610610060575f3560e01c8063068f46ce14610064578063715018a61461008257806379df0d801461008c5780638da5cb5b146100a8578063bf9e6726146100c6578063f2fde38b146100e2575b5f80fd5b61006c6100fe565b60405161007991906105c1565b60405180910390f35b61008a610123565b005b6100a660048036038101906100a19190610611565b610136565b005b6100b06101b8565b6040516100bd91906105c1565b60405180910390f35b6100e060048036038101906100db91906107ab565b6101df565b005b6100fc60048036038101906100f79190610611565b6103af565b005b60035f9054906101000a900473ffffffffffffffffffffffffffffffffffffffff1681565b61012b610433565b6101345f6104ba565b565b61013e610433565b7f22f893ecfdd76cbe10d45bf573a6524d3be0f78d88dfc48aca79f9e2708ccaab8160405161016d91906105c1565b60405180910390a18060035f6101000a81548173ffffffffffffffffffffffffffffffffffffffff021916908373ffffffffffffffffffffffffffffffffffffffff16021790555050565b5f805f9054906101000a900473ffffffffffffffffffffffffffffffffffffffff16905090565b60035f9054906101000a900473ffffffffffffffffffffffffffffffffffffffff1673ffffffffffffffffffffffffffffffffffffffff163373ffffffffffffffffffffffffffffffffffffffff161461026e576040517f08c379a000000000000000000000000000000000000000000000000000000000815260040161026590610869565b60405180910390fd5b60015f8373ffffffffffffffffffffffffffffffffffffffff1673ffffffffffffffffffffffffffffffffffffffff1681526020019081526020015f2081908060018154018082558091505060019003905f5260205f2090600402015f909190919091505f820151815f015f6101000a81548173ffffffffffffffffffffffffffffffffffffffff021916908373ffffffffffffffffffffffffffffffffffffffff1602179055506020820151816001015f6101000a81548173ffffffffffffffffffffffffffffffffffffffff021916908373ffffffffffffffffffffffffffffffffffffffff160217905550604082015181600201556060820151816003015550507fbeb59e86f273964f0fd9a6bd296ce1cde6f8d621dfb123215abb6d2638a314f382826040516103a3929190610916565b60405180910390a15050565b6103b7610433565b5f73ffffffffffffffffffffffffffffffffffffffff168173ffffffffffffffffffffffffffffffffffffffff1603610427575f6040517f1e4fbdf700000000000000000000000000000000000000000000000000000000815260040161041e91906105c1565b60405180910390fd5b610430816104ba565b50565b61043b61057b565b73ffffffffffffffffffffffffffffffffffffffff166104596101b8565b73ffffffffffffffffffffffffffffffffffffffff16146104b85761047c61057b565b6040517f118cdaa70000000000000000000000000000000000000000000000000000000081526004016104af91906105c1565b60405180910390fd5b565b5f805f9054906101000a900473ffffffffffffffffffffffffffffffffffffffff169050815f806101000a81548173ffffffffffffffffffffffffffffffffffffffff021916908373ffffffffffffffffffffffffffffffffffffffff1602179055508173ffffffffffffffffffffffffffffffffffffffff168173ffffffffffffffffffffffffffffffffffffffff167f8be0079c531659141344cd1fd0a4f28419497f9722a3daafe3b4186f6b6457e060405160405180910390a35050565b5f33905090565b5f73ffffffffffffffffffffffffffffffffffffffff82169050919050565b5f6105ab82610582565b9050919050565b6105bb816105a1565b82525050565b5f6020820190506105d45f8301846105b2565b92915050565b5f604051905090565b5f80fd5b6105f0816105a1565b81146105fa575f80fd5b50565b5f8135905061060b816105e7565b92915050565b5f60208284031215610626576106256105e3565b5b5f610633848285016105fd565b91505092915050565b5f61064682610582565b9050919050565b6106568161063c565b8114610660575f80fd5b50565b5f813590506106718161064d565b92915050565b5f80fd5b5f601f19601f8301169050919050565b7f4e487b71000000000000000000000000000000000000000000000000000000005f52604160045260245ffd5b6106c18261067b565b810181811067ffffffffffffffff821117156106e0576106df61068b565b5b80604052505050565b5f6106f26105da565b90506106fe82826106b8565b919050565b5f819050919050565b61071581610703565b811461071f575f80fd5b50565b5f813590506107308161070c565b92915050565b5f6080828403121561074b5761074a610677565b5b61075560806106e9565b90505f61076484828501610663565b5f830152506020610777848285016105fd565b602083015250604061078b84828501610722565b604083015250606061079f84828501610722565b60608301525092915050565b5f8060a083850312156107c1576107c06105e3565b5b5f6107ce85828601610663565b92505060206107df85828601610736565b9150509250929050565b5f82825260208201905092915050565b7f556e617574686f72697a65642e20596f752063616e6e6f7420617070656e64205f8201527f746f20746865206c6564676572206d616e75616c6c792e000000000000000000602082015250565b5f6108536037836107e9565b915061085e826107f9565b604082019050919050565b5f6020820190508181035f83015261088081610847565b9050919050565b6108908161063c565b82525050565b61089f8161063c565b82525050565b6108ae816105a1565b82525050565b6108bd81610703565b82525050565b608082015f8201516108d75f850182610896565b5060208201516108ea60208501826108a5565b5060408201516108fd60408501826108b4565b50606082015161091060608501826108b4565b50505050565b5f60a0820190506109295f830185610887565b61093660208301846108c3565b939250505056fea2646970667358221220af7319cc6bddd0964a588d9ca1a7d83b8208e296de390cd927a59d7164117e7464736f6c63430008150033",
  "immutableReferences": {},
  "source": "// SPDX-License-Identifier: UNLICENSED\npragma solidity ^0.8.0;\n\n/// @notice This file stores all the data related to tickets (i.e. owners, lenders)\n\nimport \"@openzeppelin/contracts/access/Ownable.sol\";\nimport \"./Collateral.sol\";\nimport \"./Ticket.sol\";\n\ncontract Ledger is Ownable {\n\n    // Fields\n    mapping (address => Ticket[]) ownerToTickets; // Mapping from person who wants loan -> loan ticket(s)\n    mapping (uint256 => address) ticketToLender; // Mapping from a loan ticket -> Lender\n    address public ticketFactory;\n\n    // Events\n    event LedgerPublished(address founder, string message);\n    event NewTicketStored(address payable owner, Ticket ticket);\n    event TicketFactoryAddressChanged(address ticketFactory);\n\n    constructor(address _ticketFactoryAddress) Ownable(msg.sender) {\n        emit LedgerPublished(owner(), \"Ledger has been initialized by Gabriel.\");\n        setTicketFactoryAddress(_ticketFactoryAddress);\n    }\n\n    /// @dev Only the owner can set the address to the ticket factory contract\n    function setTicketFactoryAddress(address _address) onlyOwner() public {\n        emit TicketFactoryAddressChanged(_address);\n        ticketFactory = _address;\n    }\n\n    /// @dev Adds new ticket to \"ownerToTicket\"\n    function appendNewTicket(address payable _owner, Ticket memory _ticket) public {\n        // This function can only be called from \"TicketFactory.sol\" after we create a ticket.\n        require(msg.sender == address(ticketFactory), \"Unauthorized. You cannot append to the ledger manually.\");\n\n        ownerToTickets[_owner].push(_ticket);\n        emit NewTicketStored(payable(_owner), _ticket);\n    }\n}",
  "sourcePath": "/Users/gabrielungur/Desktop/first_web3/smartContracts/contracts/Ledger.sol",
  "compiler": {
    "name": "solc",
    "version": "0.8.21+commit.d9974bed.Emscripten.clang"
  },
  "schemaVersion": "3.4.16",
  "updatedAt": "2025-07-14T21:27:44.173Z",
  "devdoc": {
    "errors": {
      "OwnableInvalidOwner(address)": [
        {
          "details": "The owner is not a valid owner account. (eg. `address(0)`)"
        }
      ],
      "OwnableUnauthorizedAccount(address)": [
        {
          "details": "The caller account is not authorized to perform an operation."
        }
      ]
    },
    "kind": "dev",
    "methods": {
      "appendNewTicket(address,(address,address,uint256,uint256))": {
        "details": "Adds new ticket to \"ownerToTicket\""
      },
      "owner()": {
        "details": "Returns the address of the current owner."
      },
      "renounceOwnership()": {
        "details": "Leaves the contract without owner. It will not be possible to call `onlyOwner` functions. Can only be called by the current owner. NOTE: Renouncing ownership will leave the contract without an owner, thereby disabling any functionality that is only available to the owner."
      },
      "setTicketFactoryAddress(address)": {
        "details": "Only the owner can set the address to the ticket factory contract"
      },
      "transferOwnership(address)": {
        "details": "Transfers ownership of the contract to a new account (`newOwner`). Can only be called by the current owner."
      }
    },
    "version": 1
  },
  "userdoc": {
    "kind": "user",
    "methods": {},
    "version": 1
  }
}