{
  "contractName": "Lender",
  "abi": [
    {
      "inputs": [],
      "stateMutability": "nonpayable",
      "type": "constructor"
    },
    {
      "anonymous": false,
      "inputs": [
        {
          "indexed": false,
          "internalType": "address",
          "name": "deployer",
          "type": "address"
        }
      ],
      "name": "ContractDeployed",
      "type": "event"
    },
    {
      "anonymous": false,
      "inputs": [
        {
          "indexed": false,
          "internalType": "address payable",
          "name": "sentFrom",
          "type": "address"
        },
        {
          "indexed": false,
          "internalType": "address payable",
          "name": "sentTo",
          "type": "address"
        },
        {
          "indexed": false,
          "internalType": "uint256",
          "name": "amount",
          "type": "uint256"
        },
        {
          "indexed": false,
          "internalType": "uint256",
          "name": "collateral_Id",
          "type": "uint256"
        }
      ],
      "name": "LoanSent",
      "type": "event"
    },
    {
      "inputs": [
        {
          "internalType": "address payable",
          "name": "_from",
          "type": "address"
        },
        {
          "internalType": "address payable",
          "name": "_to",
          "type": "address"
        },
        {
          "internalType": "uint256",
          "name": "_amount",
          "type": "uint256"
        },
        {
          "internalType": "uint256",
          "name": "_collateral_Id",
          "type": "uint256"
        }
      ],
      "name": "sendToBorrower",
      "outputs": [],
      "stateMutability": "payable",
      "type": "function"
    }
  ],
  "bytecode": "0x608060405234801561000f575f80fd5b507f8ffcdc15a283d706d38281f500270d8b5a656918f555de0913d7455e3e6bc1bf3360405161003f919061008b565b60405180910390a16100a4565b5f73ffffffffffffffffffffffffffffffffffffffff82169050919050565b5f6100758261004c565b9050919050565b6100858161006b565b82525050565b5f60208201905061009e5f83018461007c565b92915050565b61030b806100b15f395ff3fe60806040526004361061001d575f3560e01c80636d50fe2314610021575b5f80fd5b61003b60048036038101906100369190610198565b61003d565b005b81341015610080576040517f08c379a000000000000000000000000000000000000000000000000000000000815260040161007790610256565b60405180910390fd5b8273ffffffffffffffffffffffffffffffffffffffff166108fc8390811502906040515f60405180830381858888f193505050501580156100c3573d5f803e3d5ffd5b507fb018e7f1eea8c5a59c4523cdfa2bf18312bb20ef06b89b1609940f42ba5ee617848484846040516100f99493929190610292565b60405180910390a150505050565b5f80fd5b5f73ffffffffffffffffffffffffffffffffffffffff82169050919050565b5f6101348261010b565b9050919050565b6101448161012a565b811461014e575f80fd5b50565b5f8135905061015f8161013b565b92915050565b5f819050919050565b61017781610165565b8114610181575f80fd5b50565b5f813590506101928161016e565b92915050565b5f805f80608085870312156101b0576101af610107565b5b5f6101bd87828801610151565b94505060206101ce87828801610151565b93505060406101df87828801610184565b92505060606101f087828801610184565b91505092959194509250565b5f82825260208201905092915050565b7f496e73756666696369656e742066756e64732120416464206d6f7265204554485f82015250565b5f6102406020836101fc565b915061024b8261020c565b602082019050919050565b5f6020820190508181035f83015261026d81610234565b9050919050565b61027d8161012a565b82525050565b61028c81610165565b82525050565b5f6080820190506102a55f830187610274565b6102b26020830186610274565b6102bf6040830185610283565b6102cc6060830184610283565b9594505050505056fea2646970667358221220549fd24c8bbe939a71cf732cd8f815c69bf90d2e98158adc4c43d66234ea073f64736f6c63430008150033",
  "immutableReferences": {},
  "source": "// SPDX-License-Identifier: UNLICENSED\npragma solidity ^0.8.0;\n\nimport \"@openzeppelin/contracts/access/Ownable.sol\";\nimport \"./Collateral.sol\";\n\n/// @author Gabriel Ungur\n/// @notice This contract defines the loaning logic. The user can loan a given amount.\ncontract Lender{\n\n    // TODO: After Ledger.sol -> Borrower.sol, must add field logic\n\n    // Events\n    event ContractDeployed(address deployer);\n    event LoanSent(address payable sentFrom, address payable sentTo, uint256 amount, uint256 collateral_Id);\n\n    /// @dev This function is only called once, when the contract is deployed.\n    constructor() {\n        emit ContractDeployed(msg.sender);\n    }\n\n    /// @notice Function to send loan to a borrower\n    function sendToBorrower(address payable _from, address payable _to, uint256 _amount, uint256 _collateral_Id) external payable {\n        // Step 1: Ensure that the sender has enough ETH\n        require (msg.value >= _amount, \"Insufficient funds! Add more ETH\");\n        \n        // Step 2: Send funds\n        _to.transfer(_amount);\n\n        emit LoanSent(_from, _to, _amount, _collateral_Id); // Log transaction\n    }\n\n\n\n\n}",
  "sourcePath": "/Users/gabrielungur/Desktop/first_web3/smartContracts/contracts/Lender.sol",
  "compiler": {
    "name": "solc",
    "version": "0.8.21+commit.d9974bed.Emscripten.clang"
  },
  "schemaVersion": "3.4.16",
  "updatedAt": "2025-07-14T21:18:48.458Z",
  "devdoc": {
    "author": "Gabriel Ungur",
    "kind": "dev",
    "methods": {
      "constructor": {
        "details": "This function is only called once, when the contract is deployed."
      }
    },
    "version": 1
  },
  "userdoc": {
    "kind": "user",
    "methods": {
      "sendToBorrower(address,address,uint256,uint256)": {
        "notice": "Function to send loan to a borrower"
      }
    },
    "notice": "This contract defines the loaning logic. The user can loan a given amount.",
    "version": 1
  }
}