{
  "contractName": "TicketFactory",
  "abi": [
    {
      "inputs": [
        {
          "internalType": "address",
          "name": "_contractAddress",
          "type": "address"
        },
        {
          "internalType": "address",
          "name": "_ledgerAddress",
          "type": "address"
        }
      ],
      "stateMutability": "nonpayable",
      "type": "constructor"
    },
    {
      "inputs": [
        {
          "internalType": "address",
          "name": "owner",
          "type": "address"
        }
      ],
      "name": "OwnableInvalidOwner",
      "type": "error"
    },
    {
      "inputs": [
        {
          "internalType": "address",
          "name": "account",
          "type": "address"
        }
      ],
      "name": "OwnableUnauthorizedAccount",
      "type": "error"
    },
    {
      "anonymous": false,
      "inputs": [
        {
          "indexed": false,
          "internalType": "address",
          "name": "contractAddress",
          "type": "address"
        }
      ],
      "name": "CollateralContractAddressChanged",
      "type": "event"
    },
    {
      "anonymous": false,
      "inputs": [
        {
          "indexed": false,
          "internalType": "address",
          "name": "ledgerAddress",
          "type": "address"
        }
      ],
      "name": "LedgerAddressChanged",
      "type": "event"
    },
    {
      "anonymous": false,
      "inputs": [
        {
          "indexed": true,
          "internalType": "address",
          "name": "previousOwner",
          "type": "address"
        },
        {
          "indexed": true,
          "internalType": "address",
          "name": "newOwner",
          "type": "address"
        }
      ],
      "name": "OwnershipTransferred",
      "type": "event"
    },
    {
      "anonymous": false,
      "inputs": [
        {
          "indexed": false,
          "internalType": "address payable",
          "name": "createdBy",
          "type": "address"
        },
        {
          "indexed": false,
          "internalType": "address",
          "name": "collateralId",
          "type": "address"
        },
        {
          "indexed": false,
          "internalType": "uint256",
          "name": "ticketID",
          "type": "uint256"
        },
        {
          "indexed": false,
          "internalType": "uint256",
          "name": "loanAmount",
          "type": "uint256"
        }
      ],
      "name": "TicketCreated",
      "type": "event"
    },
    {
      "inputs": [],
      "name": "collateralContract",
      "outputs": [
        {
          "internalType": "contract Collateral",
          "name": "",
          "type": "address"
        }
      ],
      "stateMutability": "view",
      "type": "function"
    },
    {
      "inputs": [],
      "name": "ledger",
      "outputs": [
        {
          "internalType": "contract Ledger",
          "name": "",
          "type": "address"
        }
      ],
      "stateMutability": "view",
      "type": "function"
    },
    {
      "inputs": [],
      "name": "owner",
      "outputs": [
        {
          "internalType": "address",
          "name": "",
          "type": "address"
        }
      ],
      "stateMutability": "view",
      "type": "function"
    },
    {
      "inputs": [],
      "name": "renounceOwnership",
      "outputs": [],
      "stateMutability": "nonpayable",
      "type": "function"
    },
    {
      "inputs": [
        {
          "internalType": "address",
          "name": "newOwner",
          "type": "address"
        }
      ],
      "name": "transferOwnership",
      "outputs": [],
      "stateMutability": "nonpayable",
      "type": "function"
    },
    {
      "inputs": [
        {
          "internalType": "address",
          "name": "_contractAddress",
          "type": "address"
        }
      ],
      "name": "setCollateralContractAddress",
      "outputs": [],
      "stateMutability": "nonpayable",
      "type": "function"
    },
    {
      "inputs": [
        {
          "internalType": "address",
          "name": "_ledgerAddress",
          "type": "address"
        }
      ],
      "name": "setLedgerAddress",
      "outputs": [],
      "stateMutability": "nonpayable",
      "type": "function"
    },
    {
      "inputs": [
        {
          "internalType": "address",
          "name": "_collateralId",
          "type": "address"
        },
        {
          "internalType": "uint256",
          "name": "_loanAmount",
          "type": "uint256"
        }
      ],
      "name": "createTicket",
      "outputs": [
        {
          "components": [
            {
              "internalType": "address payable",
              "name": "createdBy",
              "type": "address"
            },
            {
              "internalType": "address",
              "name": "collateralId",
              "type": "address"
            },
            {
              "internalType": "uint256",
              "name": "id",
              "type": "uint256"
            },
            {
              "internalType": "uint256",
              "name": "loanAmount",
              "type": "uint256"
            }
          ],
          "internalType": "struct Ticket",
          "name": "",
          "type": "tuple"
        }
      ],
      "stateMutability": "nonpayable",
      "type": "function"
    }
  ],
  "bytecode": "0x608060405234801562000010575f80fd5b5060405162000ed438038062000ed48339818101604052810190620000369190620003f4565b335f73ffffffffffffffffffffffffffffffffffffffff168173ffffffffffffffffffffffffffffffffffffffff1603620000aa575f6040517f1e4fbdf7000000000000000000000000000000000000000000000000000000008152600401620000a191906200044a565b60405180910390fd5b620000bb81620000e660201b60201c565b50620000cd82620001a760201b60201c565b620000de816200023360201b60201c565b505062000465565b5f805f9054906101000a900473ffffffffffffffffffffffffffffffffffffffff169050815f806101000a81548173ffffffffffffffffffffffffffffffffffffffff021916908373ffffffffffffffffffffffffffffffffffffffff1602179055508173ffffffffffffffffffffffffffffffffffffffff168173ffffffffffffffffffffffffffffffffffffffff167f8be0079c531659141344cd1fd0a4f28419497f9722a3daafe3b4186f6b6457e060405160405180910390a35050565b620001b7620002bf60201b60201c565b7fb9b89578572b132dfa381c4b677e2264651323d0a7d7ee08490a2983e264602081604051620001e891906200044a565b60405180910390a18060015f6101000a81548173ffffffffffffffffffffffffffffffffffffffff021916908373ffffffffffffffffffffffffffffffffffffffff16021790555050565b62000243620002bf60201b60201c565b7f1b7c06d0eefebe9673c5637253b10e8c9654e08cf208cc27c33947f634d550bf816040516200027491906200044a565b60405180910390a18060025f6101000a81548173ffffffffffffffffffffffffffffffffffffffff021916908373ffffffffffffffffffffffffffffffffffffffff16021790555050565b620002cf6200036160201b60201c565b73ffffffffffffffffffffffffffffffffffffffff16620002f56200036860201b60201c565b73ffffffffffffffffffffffffffffffffffffffff16146200035f57620003216200036160201b60201c565b6040517f118cdaa70000000000000000000000000000000000000000000000000000000081526004016200035691906200044a565b60405180910390fd5b565b5f33905090565b5f805f9054906101000a900473ffffffffffffffffffffffffffffffffffffffff16905090565b5f80fd5b5f73ffffffffffffffffffffffffffffffffffffffff82169050919050565b5f620003be8262000393565b9050919050565b620003d081620003b2565b8114620003db575f80fd5b50565b5f81519050620003ee81620003c5565b92915050565b5f80604083850312156200040d576200040c6200038f565b5b5f6200041c85828601620003de565b92505060206200042f85828601620003de565b9150509250929050565b6200044481620003b2565b82525050565b5f6020820190506200045f5f83018462000439565b92915050565b610a6180620004735f395ff3fe608060405234801561000f575f80fd5b5060043610610086575f3560e01c80638da5cb5b116100595780638da5cb5b146100fe578063ba891f5c1461011c578063c6e1c7c914610138578063f2fde38b1461015657610086565b8063299131501461008a5780632ba2952b146100ba57806356397c35146100d6578063715018a6146100f4575b5f80fd5b6100a4600480360381019061009f9190610709565b610172565b6040516100b191906107d8565b60405180910390f35b6100d460048036038101906100cf91906107f1565b6102cd565b005b6100de61034f565b6040516100eb9190610877565b60405180910390f35b6100fc610374565b005b610106610387565b604051610113919061089f565b60405180910390f35b610136600480360381019061013191906107f1565b6103ae565b005b610140610430565b60405161014d91906108d8565b60405180910390f35b610170600480360381019061016b91906107f1565b610455565b005b61017a610628565b5f423385856040516020016101929493929190610956565b604051602081830303815290604052805190602001205f1c90505f60405180608001604052803373ffffffffffffffffffffffffffffffffffffffff1681526020018673ffffffffffffffffffffffffffffffffffffffff16815260200183815260200185815250905060025f9054906101000a900473ffffffffffffffffffffffffffffffffffffffff1673ffffffffffffffffffffffffffffffffffffffff1663bf9e672633836040518363ffffffff1660e01b81526004016102589291906109b2565b5f604051808303815f87803b15801561026f575f80fd5b505af1158015610281573d5f803e3d5ffd5b505050507f05cdcb45ca099de767f581a60de18f4f6b673b3d7ed30d91d5c98f1bfad3418e338684876040516102ba94939291906109e8565b60405180910390a1809250505092915050565b6102d56104d9565b7fb9b89578572b132dfa381c4b677e2264651323d0a7d7ee08490a2983e264602081604051610304919061089f565b60405180910390a18060015f6101000a81548173ffffffffffffffffffffffffffffffffffffffff021916908373ffffffffffffffffffffffffffffffffffffffff16021790555050565b60025f9054906101000a900473ffffffffffffffffffffffffffffffffffffffff1681565b61037c6104d9565b6103855f610560565b565b5f805f9054906101000a900473ffffffffffffffffffffffffffffffffffffffff16905090565b6103b66104d9565b7f1b7c06d0eefebe9673c5637253b10e8c9654e08cf208cc27c33947f634d550bf816040516103e5919061089f565b60405180910390a18060025f6101000a81548173ffffffffffffffffffffffffffffffffffffffff021916908373ffffffffffffffffffffffffffffffffffffffff16021790555050565b60015f9054906101000a900473ffffffffffffffffffffffffffffffffffffffff1681565b61045d6104d9565b5f73ffffffffffffffffffffffffffffffffffffffff168173ffffffffffffffffffffffffffffffffffffffff16036104cd575f6040517f1e4fbdf70000000000000000000000000000000000000000000000000000000081526004016104c4919061089f565b60405180910390fd5b6104d681610560565b50565b6104e1610621565b73ffffffffffffffffffffffffffffffffffffffff166104ff610387565b73ffffffffffffffffffffffffffffffffffffffff161461055e57610522610621565b6040517f118cdaa7000000000000000000000000000000000000000000000000000000008152600401610555919061089f565b60405180910390fd5b565b5f805f9054906101000a900473ffffffffffffffffffffffffffffffffffffffff169050815f806101000a81548173ffffffffffffffffffffffffffffffffffffffff021916908373ffffffffffffffffffffffffffffffffffffffff1602179055508173ffffffffffffffffffffffffffffffffffffffff168173ffffffffffffffffffffffffffffffffffffffff167f8be0079c531659141344cd1fd0a4f28419497f9722a3daafe3b4186f6b6457e060405160405180910390a35050565b5f33905090565b60405180608001604052805f73ffffffffffffffffffffffffffffffffffffffff1681526020015f73ffffffffffffffffffffffffffffffffffffffff1681526020015f81526020015f81525090565b5f80fd5b5f73ffffffffffffffffffffffffffffffffffffffff82169050919050565b5f6106a58261067c565b9050919050565b6106b58161069b565b81146106bf575f80fd5b50565b5f813590506106d0816106ac565b92915050565b5f819050919050565b6106e8816106d6565b81146106f2575f80fd5b50565b5f81359050610703816106df565b92915050565b5f806040838503121561071f5761071e610678565b5b5f61072c858286016106c2565b925050602061073d858286016106f5565b9150509250929050565b5f6107518261067c565b9050919050565b61076181610747565b82525050565b6107708161069b565b82525050565b61077f816106d6565b82525050565b608082015f8201516107995f850182610758565b5060208201516107ac6020850182610767565b5060408201516107bf6040850182610776565b5060608201516107d26060850182610776565b50505050565b5f6080820190506107eb5f830184610785565b92915050565b5f6020828403121561080657610805610678565b5b5f610813848285016106c2565b91505092915050565b5f819050919050565b5f61083f61083a6108358461067c565b61081c565b61067c565b9050919050565b5f61085082610825565b9050919050565b5f61086182610846565b9050919050565b61087181610857565b82525050565b5f60208201905061088a5f830184610868565b92915050565b6108998161069b565b82525050565b5f6020820190506108b25f830184610890565b92915050565b5f6108c282610846565b9050919050565b6108d2816108b8565b82525050565b5f6020820190506108eb5f8301846108c9565b92915050565b5f819050919050565b61090b610906826106d6565b6108f1565b82525050565b5f8160601b9050919050565b5f61092782610911565b9050919050565b5f6109388261091d565b9050919050565b61095061094b8261069b565b61092e565b82525050565b5f61096182876108fa565b602082019150610971828661093f565b601482019150610981828561093f565b60148201915061099182846108fa565b60208201915081905095945050505050565b6109ac81610747565b82525050565b5f60a0820190506109c55f8301856109a3565b6109d26020830184610785565b9392505050565b6109e2816106d6565b82525050565b5f6080820190506109fb5f8301876109a3565b610a086020830186610890565b610a1560408301856109d9565b610a2260608301846109d9565b9594505050505056fea2646970667358221220ec037792af3278aa5fba09084c7dddb44493a8b3d07f8409f9ec2285fdb6095264736f6c63430008150033",
  "immutableReferences": {},
  "source": "// SPDX-License-Identifier: UNLICENSED\npragma solidity ^0.8.0;\n\n/**\n  * @author Gabriel Ungur\n  * @notice This file allows users to create tickets.\n  */\n\nimport \"@openzeppelin/contracts/access/Ownable.sol\";\nimport \"./Collateral.sol\";\nimport \"./Ledger.sol\";\nimport \"./Ticket.sol\";\n\ncontract TicketFactory is Ownable{\n\n    // Fields\n    Collateral public collateralContract;\n    Ledger public ledger;\n\n    // Events \n    event CollateralContractAddressChanged(address contractAddress);\n    event TicketCreated(address payable createdBy, address collateralId, uint256 ticketID, uint256 loanAmount);\n    event LedgerAddressChanged(address ledgerAddress);\n\n    constructor (address _contractAddress, address _ledgerAddress)  Ownable(msg.sender) {\n        setCollateralContractAddress(_contractAddress); \n        setLedgerAddress(_ledgerAddress);\n    }\n\n    /// @dev Only the owner can set the address to the collateral contract\n    function setCollateralContractAddress(address _contractAddress) onlyOwner() public {\n        emit CollateralContractAddressChanged(_contractAddress);\n        collateralContract = Collateral(_contractAddress);\n    }\n\n    /// @dev Only the owner can set the address to the ledger\n    function setLedgerAddress(address _ledgerAddress) onlyOwner() public {\n        emit LedgerAddressChanged(_ledgerAddress);\n        ledger = Ledger(_ledgerAddress);\n    }\n\n    /// @notice This allows \"borrowers\" to create a ticket\n    function createTicket(address _collateralId, uint256 _loanAmount) external returns (Ticket memory){\n\n        uint256 ticketID = uint256(keccak256(abi.encodePacked(block.timestamp, msg.sender, _collateralId, _loanAmount)));\n\n        Ticket memory newTicket = Ticket ({\n            createdBy: payable(msg.sender),\n            collateralId: _collateralId,\n            id: ticketID,\n            loanAmount: _loanAmount\n        });\n\n        // Add contract to ledger\n        ledger.appendNewTicket(payable(msg.sender), newTicket);\n        \n        emit TicketCreated(payable(msg.sender), _collateralId, ticketID, _loanAmount);\n        return newTicket;\n    }\n}",
  "sourcePath": "/Users/gabrielungur/Desktop/first_web3/smartContracts/contracts/TicketFactory.sol",
  "compiler": {
    "name": "solc",
    "version": "0.8.21+commit.d9974bed.Emscripten.clang"
  },
  "schemaVersion": "3.4.16",
  "updatedAt": "2025-07-14T21:31:26.604Z",
  "devdoc": {
    "errors": {
      "OwnableInvalidOwner(address)": [
        {
          "details": "The owner is not a valid owner account. (eg. `address(0)`)"
        }
      ],
      "OwnableUnauthorizedAccount(address)": [
        {
          "details": "The caller account is not authorized to perform an operation."
        }
      ]
    },
    "kind": "dev",
    "methods": {
      "owner()": {
        "details": "Returns the address of the current owner."
      },
      "renounceOwnership()": {
        "details": "Leaves the contract without owner. It will not be possible to call `onlyOwner` functions. Can only be called by the current owner. NOTE: Renouncing ownership will leave the contract without an owner, thereby disabling any functionality that is only available to the owner."
      },
      "setCollateralContractAddress(address)": {
        "details": "Only the owner can set the address to the collateral contract"
      },
      "setLedgerAddress(address)": {
        "details": "Only the owner can set the address to the ledger"
      },
      "transferOwnership(address)": {
        "details": "Transfers ownership of the contract to a new account (`newOwner`). Can only be called by the current owner."
      }
    },
    "version": 1
  },
  "userdoc": {
    "kind": "user",
    "methods": {
      "createTicket(address,uint256)": {
        "notice": "This allows \"borrowers\" to create a ticket"
      }
    },
    "version": 1
  }
}